:100000000C94C8020C94E7020C94E7020C94E702EB
:100010000C94E7020C94E7020C94E7020C94E702BC
:100020000C94E7020C94E7020C94E7020C94E702AC
:100030000C94E7020C94E7020C94E7020C94E7029C
:100040000C94E7020C94E7020C94E7020C94E7028C
:100050000C94E7020C94E7020C94E7020C94861DC2
:100060000C94E7020C94E7020C94E7020C94E7026C
:100070000C94E7020C94E7020C94E7020C94E7025C
:100080000C94E7020C94E7020C94E7020C94E7024C
:100090000C94E7020C94E70270167F168E169D16DC
:1000A000C816F4161E17811A881A911AA51AF41A7E
:1000B0004D1BA81B000000000000005F00000003B3
:1000C000000300143E143E14242A7F2A12433308EE
:1000D000666136495522500005030000001C22418C
:1000E000000041221C0014083E081408083E0808BD
:1000F0000050300000080808080800606000002078
:10010000100804023E5149453E0004027F0042614E
:1001100051494622414949361814127F1027454556
:1001200045393E4949493201017109073649494972
:1001300036264949493E0036360000005636000052
:10014000081422410014141414140041221408024B
:10015000015109063E4159555E7E0909097E7F49D4
:100160004949363E414141227F4141413E7F494913
:1001700049417F090909013E4141493A7F08080880
:100180007F00417F4100304040403F7F08142241C2
:100190007F404040407F020C027F7F0204087F3E88
:1001A0004141413E7F090909061E2121215E7F0947
:1001B000090976264949493201017F01013F404042
:1001C000403F1F2040201F7F2010207F41221C2203
:1001D0004107087008076151494543007F4100000D
:1001E00002040810200000417F00040201020440C4
:1001F00040404040000102040020545454787F44A1
:100200004444383844444444384444447F38545483
:10021000541804047E0505085454543C7F08040413
:100220007800447D40002040443D007F1028440079
:1002300000417F40007C047804787C08040478380E
:10024000444444387C14141408081414147C007CAE
:10025000080404485454542004043F44443C40409F
:10026000207C1C2040201C3C4030403C442810286E
:10027000440C5050503C4464544C440008364141B6
:1002800000007F0000414136080002010204020024
:10029000000000000000005F5F0000000000000799
:1002A00007000707000000147F7F147F7F14006F92
:1002B0006F6BEB6B7B7B006373381C0E6763007F97
:1002C0007F6B63687878000707000000000000007B
:1002D0003E7F4141410000004141417F3E000036E8
:1002E000087F7F7F08360008083E0808000000E00D
:1002F000E000000000000008080808080000006096
:1003000060000000000000701C0700000000007F7B
:100310007F6363637F7F006066667F7F6060007BD2
:100320007B6B6B6B6F6F0063636B6B6B7F7F001F0F
:100330001F1818187E7E006F6F6B6B6B7B7B007FC6
:100340007F6C6C6C7C7C004363733B1F0F07007FEA
:100350007F6B6B6B7F7F001F1F1B1B1B7F7F006CE6
:100360006C000000000000ECEC0000000000000841
:10037000142222000000001414141414000000229F
:100380002214080000000003035B5B0B0F0F007FCB
:100390007F636F6B6F6F007F7F1B1B1B7F7F007FF7
:1003A0007F6B6B6F7E7C007F7F6363636363007F23
:1003B0007F6363677E7C007F7F6B6B6B6B6B007F03
:1003C0007F0B0B0B0303007F7F63636B7B7B007FE3
:1003D0007F1818187F7F0063637F7F63636300600B
:1003E000606060607F3F007F7F18181E7F79007F0C
:1003F0007F6060606060007F7F0306037F7F007F17
:100400007F0E1C387F7F007F7F6363637F7F007F69
:100410007F1B1B1B1F1F007F7F63F3F37F7F007F0A
:100420007F1B3B7B7F5F006F6F6B6B6B7B7B000386
:10043000037F7F030303007F7F6060607F7F001F77
:100440003F7060703F1F003F7F6030607F3F0077EC
:100450007F1C081C7F7700070F7C787C0F070073D8
:100460007B6B6B6B6F6700007F7F41414100000732
:100470001C700000000000004141417F7F0000002F
:100480007F407F00000000808080808080800000AE
:100490007F407F000000007F7F1B1B1B7F7F007F52
:1004A0007F6B6B6F7E7C007F7F6363636363007F22
:1004B0007F6363677E7C007F7F6B6B6B6B6B007F02
:1004C0007F0B0B0B0303007F7F63636B7B7B007FE2
:1004D0007F1818187F7F0063637F7F63636300600A
:1004E000606060607F3F007F7F18181E7F79007F0B
:1004F0007F6060606060007F7F0306037F7F007F16
:100500007F0E1C387F7F007F7F6363637F7F007F68
:100510007F1B1B1B1F1F007F7F63F3F37F7F007F09
:100520007F1B3B7B7F5F006F6F6B6B6B7B7B000385
:10053000037F7F030303007F7F6060607F7F001F76
:100540003F7060703F1F003F7F6030607F3F0077EB
:100550007F1C081C7F7700070F7C787C0F070073D7
:100560007B6B6B6B6F67001CFFFF80000000007FE0
:100570000000000000000080FFFF1C0000000000E1
:100580007F407F000000000000000000000000002D
:1005900011241FBECFEFD0E2DEBFCDBF14E0A0E03C
:1005A000B1E0E8ECFCE400E00BBF02C007900D9264
:1005B000A437B107D9F715E0A4E7B4E001C01D9254
:1005C000A13EB107E1F70E944B1F0C9462260C94E8
:1005D00000000F931F93909375048093740470939D
:1005E00077046093760450937904409378043093B1
:1005F0007B0420937A042091740430917504409117
:100600007604509177046091780470917904809118
:100610007A0490917B040E94A3111F910F91089579
:10062000CF92DF92EF92FF920F931F93CF93DF93BE
:10063000EB017C01EE0CFF1CCC0FDD1FE0912905C6
:10064000F0912A05EE0DFF1D0190F081E02DEC0FD9
:10065000FD1F40815181E0912705F0912805EE0DA5
:10066000FF1D0190F081E02DEC0FFD1F8081918135
:100670002091230530912405240F351FBC016E5FA6
:100680007F4F0FEF1FEF0E94E902E0912905F091E3
:100690002A05EE0DFF1D0190F081E02DEC0FFD1FEE
:1006A00040815181E0912705F0912805EE0DFF1D55
:1006B0000190F081E02DEC0FFD1F808191819A0166
:1006C0002E5F3F4F6091230570912405680F791FBD
:1006D0000E94E9026091230570912405E0912905AB
:1006E000F0912A05EE0DFF1D0190F081E02DEC0F39
:1006F000FD1F40815181E0912705F0912805EE0D05
:10070000FF1D0190F081E02DEC0FFD1F8081918194
:100710006B0122E0C21AD1089A01260F371F680F19
:10072000791F05E51DEA8C0D9D1D0E94E902E091EF
:100730002905F0912A05EE0DFF1D0190F081E02DB5
:10074000EC0FFD1F408151816091230570912405BC
:10075000E0912705F0912805EE0DFF1D0190F08135
:10076000E02DEC0FFD1F808191819A01260F371F2C
:100770004C0D5D1D680F791F0E94E902DF91CF913A
:100780001F910F91FF90EF90DF90CF9008950F93FE
:100790001F93880F991F660F771FE0912905F0912D
:1007A0002A05E80FF91F0190F081E02DE60FF71FF1
:1007B00040815181E0912305F09124053197A0916A
:1007C0002705B0912805A80FB91F0D90BC91A02D49
:1007D000A60FB71F8D919C9100911B0510911C05D0
:1007E0009A012E0F3F1FBC016E0F7F1F0E94E9026E
:1007F0001F910F910895CF92DF92EF92FF920F9386
:100800001F93CF93DF93EB017C01EE0CFF1CCC0F09
:10081000DD1FE0912905F0912A05EE0DFF1D0190E5
:10082000F081E02DEC0FFD1F40815181E091270503
:10083000F0912805EE0DFF1D0190F081E02DEC0FE9
:10084000FD1F808191812091230530912405240F83
:10085000351FBC016F5F7F4F00E010E00E94E9028E
:10086000E0912905F0912A05EE0DFF1D0190F08120
:10087000E02DEC0FFD1F40815181E0912705F091A3
:100880002805EE0DFF1D0190F081E02DEC0FFD1FFE
:10089000808191819A012F5F3F4F60912305709174
:1008A0002405680F791F0E94E90260912305709169
:1008B0002405E0912905F0912A05EE0DFF1D019018
:1008C000F081E02DEC0FFD1F40815181E091270563
:1008D000F0912805EE0DFF1D0190F081E02DEC0F49
:1008E000FD1F808191816B0121E0C21AD1089A011C
:1008F000260F371F680F791F8C0D9D1D0E94E9027E
:10090000E0912905F0912A05EE0DFF1D0190F0817F
:10091000E02DEC0FFD1F4081518160912305709106
:100920002405E0912705F0912805EE0DFF1D0190AB
:10093000F081E02DEC0FFD1F808191819A01260F3F
:10094000371F4C0D5D1D680F791F0E94E902DF9172
:10095000CF911F910F91FF90EF90DF90CF9008956E
:10096000CF92DF92EF92FF920F931F93CF93DF937B
:10097000CDB7DEB764970FB6F894DEBF0FBECDBF1C
:100980007C01EE0CFF1CE0913505F0913605EE0D73
:10099000FF1DCB01A3E0880F991FAA95E1F70190F5
:1009A000F081E02DE80FF91F828193818E010F5FA6
:1009B0001F4F6B01CC0CDD1C8F3F2FEF9207A1F571
:1009C00064E271E0C8010E94282380912305909180
:1009D000240565E070E00E948D1F9B01220F331FEC
:1009E0002E5F3F4FE0912905F0912A05EE0DFF1D86
:1009F0000190F081E02DEC0DFD1D40815181420FF1
:100A0000531FE0912705F0912805EE0DFF1D019081
:100A1000F081E02DEC0DFD1D60817181620F731F6F
:100A2000C8010E9441153CC09F938F9386E291E0DC
:100A30009F938F931F930F930E942F2380912305E1
:100A40009091240565E070E00E948D1FCB01880F16
:100A5000991FE0912905F0912A05EE0DFF1D0190E7
:100A6000F081E02DEC0DFD1D40815181480F591F93
:100A7000E0912705F0912805EE0DFF1D0190F08112
:100A8000E02DEC0DFD1D60817181680F791FC8019B
:100A90000E9441150F900F900F900F900F900F90A4
:100AA00064960FB6F894DEBF0FBECDBFDF91CF9135
:100AB0001F910F91FF90EF90DF90CF900895CF930B
:100AC000DF939C01220F331FE0913505F09136052D
:100AD000E20FF31FCB01A3E0880F991FAA95E1F75E
:100AE0000190F081E02DE80FF91F8181813081F5BF
:100AF000EB01CC0FDD1F809123059091240565E06B
:100B000070E00E948D1F660F771FE0912905F0911C
:100B10002A05E20FF31F0190F081E02DEC0FFD1F7D
:100B200040815181460F571F6D5F7F4FE091270530
:100B3000F0912805E20FF31F0190F081E02DEC0FFA
:100B4000FD1F80819181680F791F85E893E030C097
:100B5000823091F5EB01CC0FDD1F80912305909140
:100B6000240565E070E00E948D1FCB01880F991F5E
:100B7000E0912905F0912A05E20FF31F0190F08121
:100B8000E02DEC0FFD1F40815181480F591FE0916E
:100B90002705F0912805E20FF31F0190F081E02D69
:100BA000EC0FFD1F60817181680F791F81EA93E06E
:100BB000DF91CF910C944115DF91CF9108950F9360
:100BC0001F93CF93DF93EC018B010E94C703B80101
:100BD000CE01DF91CF911F910F910C9410032091C2
:100BE0002505309126052F5F3F4F30932605209332
:100BF0002505E0911F05F09120052E173F0771F4A0
:100C0000109226051092250520913B0530913C0558
:100C10002F5F3F4F30933C0520933B0520913B05D0
:100C200030913C05220F331FE0912705F0912805F4
:100C3000E20FF31F2091250530912605220F331F67
:100C40000190F081E02DE20FF31F9183808380916A
:100C50003B0590913C05880F991FE0912905F09183
:100C60002A05E80FF91F8091250590912605880F28
:100C7000991F0190F081E02DE80FF91F71836083C7
:100C800020913B0530913C058091250590912605EA
:100C9000B901660F771FE0913505F0913605E60F33
:100CA000F71FBC0153E0660F771F5A95E1F70190DB
:100CB000F081E02DE60FF71F10821182552747FDC6
:100CC0005095538342833583248397838683809111
:100CD00033059091340590931C0580931B0560911A
:100CE00025057091260580913B0590913C050C945B
:100CF000DF050F931F93CF93DF93EC018B018FE1FF
:100D000090E090931C0580931B05D0933A05C09307
:100D1000390570932E0560932D05CE010E94DF05E5
:100D200060911B0570911C0580E090E00E943815D1
:100D3000B801CE01DF91CF911F910F910C945F0507
:100D40000F931F93CF93DF93EC018B0197FD3CC072
:100D500077FD3AC0E0913505F0913605880F991F6F
:100D6000E80FF91F0190F081E02DC80173E0880FB2
:100D7000991F7A95E1F7E80FF91F8081811124C04E
:100D8000809133059091340590931C0580931B0549
:100D9000D0933A05C093390510932E0500932D0585
:100DA000B801CE010E94DF056091330570913405D2
:100DB00080E090E00E943815B801CE01DF91CF911C
:100DC0001F910F910C945F05DF91CF911F910F91AF
:100DD00008958FEF9FEF90933A0580933905109215
:100DE0002E0510922D051092300510922F0520919E
:100DF0002F053091300580913B0590913C0582177D
:100E000093072CF110922205109221056091210583
:100E100070912205209125053091260580912F059E
:100E2000909130052617370764F00E94A006809144
:100E3000210590912205019690932205809321052A
:100E4000E5CF01969093300580932F05D0CF08957C
:100E50004091390550913A0557FD21C020912D054B
:100E600030912E0537FD1BC0440F551FE09135050D
:100E7000F0913605E40FF51FA3E0220F331FAA956A
:100E8000E1F70190F081E02DE20FF31F28E0DC0193
:100E900001900D922A95E1F781E090E0089580E0BD
:100EA00090E008950F931F93CF93DF9360912D05EA
:100EB00070912E058091390590913A050E94A00607
:100EC0001092300510922F0580911D0590911E05FE
:100ED000209135053091360560912D0570912E05D4
:100EE000EB01E3E0CC0FDD1FEA95E1F741E050E0D4
:100EF000E0912F05F0913005E817F907D4F4452B60
:100F000009F45AC0DF01AA0FBB1FA20FB31F0D9037
:100F1000BC91A02DAC0FBD1F01E010E04C91411120
:100F200001C000E0A8013196F0933005E0932F0551
:100F3000DFCF452B09F440C016161706D4F4809174
:100F4000390590913A0561507109FC01EE0FFF1FC0
:100F5000E20FF31F9B0143E0220F331F4A95E1F795
:100F60000190F081E02DE20FF31F208121111FC0BD
:100F70003FC0019760911F05709120056150710974
:100F8000FC01EE0FFF1FE20FF31F9B0113E0220F86
:100F9000331F1A95E1F70190F081E02DE20FF31F66
:100FA0002081222329F190933A058093390570938B
:100FB0002E0560932D057ACF4091390550913A0561
:100FC000141615060CF4CA010197FC01EE0FFF1F61
:100FD000E20FF31F0190F081E02D9B01C3E0220F8F
:100FE000331FCA95E1F7E20FF31F2081211106C0DC
:100FF000DF91CF911F910F910C94790690933A0550
:101000008093390553CF0F931F93CF93DF93609154
:101010002D0570912E058091390590913A050E9419
:10102000A0061092300510922F0540911D05509199
:101030001E05E0913505F091360560912D05709102
:101040002E05EB0193E0CC0FDD1F9A95E1F781E0CF
:1010500090E020912F053091300524173507DCF4FE
:10106000892B09F452C0D901AA0FBB1FAE0FBF1FB5
:101070000D90BC91A02DAC0FBD1F01E010E08C9134
:10108000811101C000E0C8012F5F3F4F3093300550
:1010900020932F05DECF892BC1F180911F05909100
:1010A0002005019768177907F4F48091390590912C
:1010B0003A056F5F7F4FDC01AA0FBB1FAE0FBF1F4A
:1010C0009B0103E0220F331F0A95E1F7ED91FC919C
:1010D000E20FF31F2081222309F448C070932E05EC
:1010E00060932D0594CF0190F081E02D80818111D6
:1010F00003C060E070E038C010923A0510923905E4
:1011000010922E0510922D0582CF80913905909175
:101110003A054150510984179507C4F40196DC0142
:10112000AA0FBB1FAE0FBF1FED91FC919B01D3E037
:10113000220F331FDA95E1F7E20FF31F20812223FC
:10114000A9F090933A058093390561CF0190F08121
:10115000E02DCB01A3E0880F991FAA95E1F7E80FD6
:10116000F91F8081811108C080E090E0DF91CF916C
:101170001F910F910C94790610923A05109239053F
:1011800046CF60912D0570912E0580913905909183
:101190003A050E94A00660912D0570912E05809160
:1011A000390590913A05209135053091360516168E
:1011B0001706B4F461507109FC01EE0FFF1FE20F36
:1011C000F31F9B01B3E0220F331FBA95E1F70190A3
:1011D000F081E02DE20FF31F2081211128C021C0F2
:1011E00060911F05709120051816190624F0809152
:1011F0001D0590911E05019761507109FC01EE0FCC
:10120000FF1FE20FF31F9B0153E0220F331F5A957C
:10121000E1F70190F081E02DE20FF31F2081211111
:1012200002C00C94790690933A0580933905709327
:101230002E0560932D05A5CF60912D0570912E058B
:101240008091390590913A050E94A00660912D0584
:1012500070912E0520911F053091200521503109F4
:101260008091390590913A05E0913505F091360568
:1012700062177307CCF46F5F7F4FDC01AA0FBB1FAF
:10128000AE0FBF1F9B0143E0220F331F4A95E1F7CA
:10129000ED91FC91E20FF31F2081222359F170930D
:1012A0002E0560932D05C8CF20911D0530911E0598
:1012B00021503109821793079CF40196DC01AA0F93
:1012C000BB1FAE0FBF1FED91FC912081211103C008
:1012D00060E070E00FC090933A058093390510C02C
:1012E0000190F081E02D8081811106C060E070E006
:1012F00080E090E00C94790610923A05109239053E
:1013000010922E0510922D0597CF0E94E90610929B
:101310003A051092390510922E0510922D05089568
:10132000CF92DF92EF92FF920F931F93CF93DF93B1
:101330007C01EB01880F991F0E94A5216C0110927E
:10134000300510922F05CC0FDD1F00912F05109155
:1013500030050E151F058CF4CE010E94A521F80161
:10136000EE0FFF1FEC0DFD1D918380830F5F1F4F5C
:101370001093300500932F05E8CFC601DF91CF9180
:101380001F910F91FF90EF90DF90CF900895CF9233
:10139000DF92EF92FF920F931F93CF93DF937C0125
:1013A000EB01880F991F0E94A5216C011092300556
:1013B00010922F0513E0CC0FDD1F1A95E1F7009175
:1013C0002F05109130050E151F058CF4CE010E94DB
:1013D000A521F801EE0FFF1FEC0DFD1D9183808309
:1013E0000F5F1F4F1093300500932F05E8CFC60104
:1013F000DF91CF911F910F91FF90EF90DF90CF90F1
:101400000895CF92DF92EF92FF920F931F93CF93A5
:10141000DF9300D0CDB7DEB76C017A0189018091EE
:1014200027059091280569837A830E943D22809147
:10143000290590912A050E943D22809135059091C1
:1014400036050E943D2210923C0510923B058FEF1D
:101450009FEF909326058093250510923A051092F0
:10146000390510922E0510922D0581E090E09093A1
:101470002C0580932B0580E194E890931C058093C4
:101480001B059093340580933305F0922405E09278
:101490002305D0921E05C0921D0569817A81709343
:1014A000200560931F0510933805009337051093AE
:1014B000320500933105C6010E94900990932805DA
:1014C0008093270560911F057091200580911D056F
:1014D00090911E050E94900990932A0580932905FA
:1014E00060911F057091200580911D0590911E054A
:1014F0000E94C70990933605809335050F900F9091
:10150000DF91CF911F910F91FF90EF90DF90CF90DF
:101510000895CF93DF93EC011092300510922F05C0
:10152000E0912F05F091300580911D0590911E05E9
:10153000E817F9079CF4EE0FFF1FEC0FFD1F8081E9
:1015400091810E943D2220912F05309130052F5F1F
:101550003F4F3093300520932F05E2CFCE01DF912E
:10156000CF910C943D22CF93DF93EC011092300584
:1015700010922F05E0912F05F091300580911D0507
:1015800090911E05E817F9079CF4EE0FFF1FEC0F72
:10159000FD1F808191810E943D2220912F05309175
:1015A00030052F5F3F4F3093300520932F05E2CF5A
:1015B000CE01DF91CF910C943D2280912B0590912B
:1015C0002C05089510922C0510922B0510923005D1
:1015D00010922F0580912F059091300520911D05C7
:1015E00030911E0582179307B4F5880F991FE0917B
:1015F0002905F0912A05E80FF91F808191810E9449
:101600003D2280912F0590913005880F991FE09120
:101610002705F0912805E80FF91F808191810E942C
:101620003D2280912F0590913005880F991FE09100
:101630003505F0913605E80FF91F808191810E94F0
:101640003D2280912F0590913005019690933005B1
:1016500080932F05BFCF08950F931F93CF93DF93F0
:10166000809137059091380540911D0550911E05D8
:1016700060911F0570912005C0913505D091360508
:101680001092300510922F05892B09F08BC08091A4
:101690002F059091300584179507ACF5109222051F
:1016A00010922105DC01AA0FBB1FAC0FBD1F2091BA
:1016B00021053091220526173707FCF4ED91FC91A6
:1016C00011978901000F111F000F111F000F111F2B
:1016D000E00FF11F11810280F381E02D113019F428
:1016E000319621F076C0319609F473C02F5F3F4FD9
:1016F0003093220520932105DACF0196909330058F
:1017000080932F05C4CFF8942FEF84E39CE0215001
:1017100080409040E1F700C0000060E074E080E0AD
:1017200090E00E9438150E94A51244E650E068E25D
:1017300070E089E291E00E94411542E850E06CE3DC
:1017400070E087E491E00E94411546E950E068E3CB
:1017500070E08FE591E00E9441150E94E20A7894C2
:1017600038C0ED91FC9111978901000F111F000FF6
:10177000111F000F111FE00FF11F1081112321F124
:101780002F5F3F4F309322052093210520912105A3
:10179000309122052617370724F3019690933005E0
:1017A00080932F0580912F05909130058417950720
:1017B0000CF0A9CF1092220510922105DC01AA0F8E
:1017C000BB1FAC0FBD1FE2CF0280F381E02D31962D
:1017D000B9F2DF91CF911F910F9108959F92AF922F
:1017E000BF92CF92DF92EF92FF920F931F93CF930E
:1017F000DF93CDB7DEB76C970FB6F894DEBF0FBEA0
:10180000CDBFCE0145960E942807892B09F485C0DB
:10181000098D1A8DEB8CFC8C5801AA0CBB1C67013E
:1018200043E0CC0CDD1C4A95E1F7E0913505F091E1
:101830003605EA0DFB1D0190F081E02DEC0DFD1D3C
:10184000808181116AC09180892D90E0019663E0CA
:1018500070E00E948D1F81838FE190E090931C05C2
:1018600080931B05B701C8010E94C70360911B0547
:1018700070911C0580E090E00E943815B701C80106
:101880000E945F05E0913505F0913605EA0DFB1DDC
:101890000190F081E02DEC0DFD1D21818091370537
:1018A00090913805213011F401970BC0209131053A
:1018B000309132058217930774F521E092122BC004
:1018C00001969093380580933705609133057091A8
:1018D000340580E090E00E943815809138058F93A0
:1018E000809137058F9388E791E09F938F938E01C6
:1018F0000F5F1F4F1F930F930E942F234DE050E067
:1019000069EB70E0C8010E9441150F900F900F9095
:101910000F900F900F900E942C0B6C960FB6F894BE
:10192000DEBF0FBECDBFDF91CF911F910F91FF9012
:10193000EF90DF90CF90BF90AF909F9008959F92CF
:10194000AF92BF92CF92DF92EF92FF920F931F93CD
:10195000CF93DF93CDB7DEB76C970FB6F894DEBFA9
:101960000FBECDBFCE0145960E942807892B09F4F2
:1019700088C0098D1A8DEB8CFC8C5801AA0CBB1CFD
:10198000670163E0CC0CDD1C6A95E1F7E091350559
:10199000F0913605EA0DFB1D0190F081E02DEC0D74
:1019A000FD1D808181116DC09180892D90E002968E
:1019B00063E070E00E948D1F81838FE190E090933F
:1019C0001C0580931B05B701C8010E94C7036091E5
:1019D0001B0570911C0580E090E00E943815B7014E
:1019E000C8010E945F05E0913505F0913605EA0DCA
:1019F000FB1D0190F081E02DEC0DFD1D21818091FA
:101A0000370590913805213029F418161906BCF5D0
:101A100001970BC020913105309132058217930751
:101A200074F521E092122BC00196909338058093B3
:101A30003705609133057091340580E090E00E9495
:101A40003815809138058F93809137058F9388E7FB
:101A500091E09F938F938E010F5F1F4F1F930F9302
:101A60000E942F234DE050E069EB70E0C8010E9416
:101A700041150F900F900F900F900F900F900E94B4
:101A80002C0B6C960FB6F894DEBF0FBECDBFDF9166
:101A9000CF911F910F91FF90EF90DF90CF90BF906B
:101AA000AF909F900895CF92DF92EF92FF920F93A5
:101AB0001F93CF93DF93CDB7DEB76C970FB6F89433
:101AC000DEBF0FBECDBFCE0145960E942807892BF1
:101AD00009F4DDC0098D1A8DEB8CFC8C9801220F66
:101AE000331FC701E3E0880F991FEA95E1F7E09102
:101AF0003505F0913605E20FF31F0190F081E02DDE
:101B0000E80FF91F41E04083E0913505F09136057B
:101B1000E20FF31F0190F081E02DE80FF91F8181A2
:101B20008130D9F520913705309138058091310504
:101B3000909132052817390784F511828091370575
:101B40009091380501969093380580933705609100
:101B500033057091340580E090E00E943815809143
:101B600038058F93809137058F9388E791E09F9395
:101B70008F93CE0101966C01DF928F930E942F23E9
:101B80004DE050E069EB70E0C6010E9441150F90F6
:101B90000F900F900F900F900F908F89988D019656
:101BA00009F042C0F89480E098EF90931C05809370
:101BB0001B05B701C8010E94C70360911B05709106
:101BC0001C0580E090E00E943815B701C8010E9412
:101BD000B004B701C8010E94FB038FEF99E628E12A
:101BE000815090402040E1F700C000000E94A51203
:101BF00044E650E06EE670E081E891E00E94411515
:101C000042E850E06CE370E087E491E00E94411507
:101C100046E950E068E370E08FE591E00E944115ED
:101C20000E94E20A789433C08DE49BE690931C05F1
:101C300080931B05B701C8010E94C7038F8918163E
:101C4000E4F460911B0570911C05823059F02CF46E
:101C5000813059F48FE190E00AC0833031F480E0A4
:101C600098EF05C080E293E002C080E190E80E9416
:101C70003815B701C8010E94B004B701C8010E941D
:101C8000FB03B701C8010E94560E0E942C0B6C96F4
:101C90000FB6F894DEBF0FBECDBFDF91CF911F917D
:101CA0000F91FF90EF90DF90CF900895CF92DF9249
:101CB000EF92FF920F931F93CF93DF93EC018B0171
:101CC0007B0163E0EE0CFF1C6A95E1F7181619061C
:101CD0006CF581509048880F991FE0913505F0917F
:101CE0003605E80FF91F0190F081E02DEE0DFF1D84
:101CF000808181111BC08181811118C082819381F3
:101D0000892BA1F4CE01019790933A058093390570
:101D100010932E0500932D050E94530DD0933A0584
:101D2000C093390510932E0500932D0580911D0554
:101D300090911E050197C817D90764F5CE01019649
:101D40009C01220F331FE0913505F0913605E20F1B
:101D5000F31F0190F081E02DEE0DFF1D2081211178
:101D600019C02181211116C022813381232B91F4C6
:101D700090933A058093390510932E0500932D0515
:101D80000E94530DD0933A05C093390510932E0548
:101D900000932D056E01CC0CDD1C101611068CF580
:101DA000E0913505F0913605EC0DFD1DC80181501F
:101DB000904EB3E0880F991FBA95E1F70190F0813A
:101DC000E02DE80FF91F808181111BC081818111F5
:101DD00018C082819381892BA1F4C8010197909347
:101DE0002E0580932D05D0933A05C09339050E94A6
:101DF000530DD0933A05C093390510932E050093E7
:101E00002D0580911F05909120050197081719074E
:101E10007CF5E0913505F0913605EC0DFD1DC8010E
:101E200001969C01A3E0220F331FAA95E1F70190D0
:101E3000F081E02DE20FF31F2081211119C02181D3
:101E4000211116C022813381232B91F490932E050A
:101E500080932D05D0933A05C09339050E94530D08
:101E6000D0933A05C093390510932E0500932D05A4
:101E7000E0913505F0913605EC0DFD1DA081B18195
:101E8000AE0DBF1D12968D919C911397892B09F071
:101E90009CC11C161D0624F532970190F081E02D9F
:101EA000EE0DFF1D808181111BC08181811118C041
:101EB000828193810196A1F0CE01019790933A051A
:101EC0008093390510932E0500932D050E94530D24
:101ED000D0933A05C093390510932E0500932D0534
:101EE00080911D0590911E050197C817D9074CF5E3
:101EF000E0913505F0913605EC0DFD1D0280F38172
:101F0000E02DEE0DFF1D808181111BC081818111AB
:101F100018C0828193810196A1F0CE010196909321
:101F20003A058093390510932E0500932D050E94E4
:101F3000530DD0933A05C093390510932E050093A5
:101F40002D05101611065CF5E0913505F09136056A
:101F5000EC0DFD1D0190F081E02DC7010897E80F01
:101F6000F91F808181111BC08181811118C082817C
:101F700093810196A1F0C801019790932E0580935B
:101F80002D05D0933A05C09339050E94530DD09387
:101F90003A05C093390510932E0500932D058091C5
:101FA0001F05909120050197081719075CF5E0912E
:101FB0003505F0913605EC0DFD1D0190F081E02D09
:101FC000C7010896E80FF91F808181111BC081812C
:101FD000811118C0828193810196A1F0C8010196F8
:101FE00090932E0580932D05D0933A05C093390523
:101FF0000E94530DD0933A05C093390510932E05D6
:1020000000932D051C161D068CF51016110674F58F
:10201000E0913505F0913605EC0DFD1D32970190EC
:10202000F081E02DC7010897E80FF91F8081811129
:102030001DC0818181111AC0828193810196B1F006
:10204000CE01019790933A0580933905C801019715
:1020500090932E0580932D050E94530DD0933A0541
:10206000C093390510932E0500932D0580911D0511
:1020700090911E050197C817D907ACF580911F05EF
:10208000909120050197081719076CF5E091350527
:10209000F0913605EC0DFD1D0280F381E02DC701A6
:1020A0000896E80FF91F808181111DC0818181117F
:1020B0001AC0828193810196B1F0CE01019690936E
:1020C0003A0580933905C801019690932E058093B7
:1020D0002D050E94530DD0933A05C09339051093F6
:1020E0002E0500932D0580911D0590911E050197E9
:1020F000C817D90784F5101611066CF5E09135055F
:10210000F0913605EC0DFD1D0280F381E02DC70135
:102110000897E80FF91F808181111DC0818181110D
:102120001AC0828193810196B1F0C8010197909302
:102130002E0580932D05CE01019690933A0580934C
:1021400039050E94530DD0933A05C0933905109379
:102150002E0500932D051C161D06BCF580911F054C
:10216000909120050197081719077CF5E091350536
:10217000F0913605EC0DFD1D329788E0E80EF11C5C
:102180000190F081E02DEE0DFF1D808181111DC0B9
:10219000818181111AC0828193810196B1F0C801B9
:1021A000019690932E0580932D05CE010197909373
:1021B0003A05809339050E94530DD0933A05C09398
:1021C000390510932E0500932D05DF91CF911F91B6
:1021D0000F91FF90EF90DF90CF90089593E8909348
:1021E000B00091E09093B1008093B3000895909374
:1021F00042058093410526E330E02093004000979C
:1022000079F480EF90E090933E0580933D0580E463
:1022100091E09093400580933F0588E490E034C0BE
:102220008130910579F480E491E090933E058093AC
:102230003D0580EF90E09093400580933F0588EE48
:1022400090E022C08230910579F480EF90E0909385
:102250003E0580933D0580E491E090934005809396
:102260003F0588E890E010C0039781F480E491E096
:1022700090933E0580933D0580EF90E0909340055C
:1022800080933F0588E290E0809300418AE290E0ED
:102290008093004080E090E0909300418093004163
:1022A00080913D0590913E05019790930041809368
:1022B00000418BE290E08093004080E090E09093BA
:1022C00000418093004180913F0590914005019726
:1022D00090930041809300410895CF93873750F445
:1022E000883050F08D3350F48F3150F4803150F0FD
:1022F000C2E009C086E702C088E004C0C0E003C0B5
:10230000C1E001C0C3E021EB30E020930040C09366
:102310000041682F70E080E090E00E94B6209B01B1
:10232000AC0160E070E080EF94E40E9420200E9405
:10233000882070E002C075956795CA95E2F76093B2
:102340000041CF9108950F931F93CF93DF93CDB7A3
:10235000DEB728970FB6F894DEBF0FBECDBF298336
:102360003A834B835C836D837E838F8398876981F7
:102370007A812B813C814D815E818F819885EAE253
:10238000F0E0E0930040709300416093004130938F
:10239000004120930041EBE2F0E0E09300405093D5
:1023A0000041409300419093004180930041ECE252
:1023B000F0E0E09300402F5F3F4F261B370B019664
:1023C000841B950B2817390790F4682F6770629F5C
:1023D000A001639F500D112473E0969587957A951F
:1023E000E1F7829FB001839F700D112411C0622F0D
:1023F0006770689FA001699F500D112463E03695B6
:1024000027956A95E1F7289FB001299F700D112447
:10241000842F8770815028F0109300410093004171
:10242000F9CFCA0123E0969587952A95E1F7860FA3
:10243000971F019708F110930041009300411093FA
:10244000004100930041109300410093004110931C
:10245000004100930041109300410093004110930C
:1024600000410093004110930041009300411093FC
:10247000004100930041DDCF28960FB6F894DEBFEF
:102480000FBECDBFDF91CF911F910F910895EF92B5
:10249000FF920F931F93CF93DF93CDB7DEB72897AB
:1024A0000FB6F894DEBF0FBECDBF29833A834B83AE
:1024B0005C836D837E838F83988789819A81EB808B
:1024C000FC806D817E81AF81B8852AE230E0209367
:1024D00000409093004180930041F0920041E092CF
:1024E00000412BE230E02093004070930041609364
:1024F0000041B0930041A09300412CE230E02093D2
:102500000040E816F906A0F0A8019B018A01A21775
:10251000B30760F04E5F5F4FF801008111811093A7
:102520000041009300412F5F3F4FF0CF0196E9CF6C
:1025300028960FB6F894DEBF0FBECDBFDF91CF91C6
:102540001F910F91FF90EF9008950F931F93CF93DA
:10255000DF93CDB7DEB728970FB6F894DEBF0FBE76
:10256000CDBF10924405109243051092460510927B
:1025700045051A82198280913D0590913E0501978B
:10258000482F9C838B831E821D8280913F059091F2
:102590004005019798878F830091490510914A055E
:1025A00020E03A815C8160E07E8198850E94A311E1
:1025B00028960FB6F894DEBF0FBECDBFDF91CF9146
:1025C0001F910F91089586E08093750080E88093B5
:1025D00074003F9A249A8FEC97E00197F1F700C0BE
:1025E000000047988FE39CE90197F1F700C00000D5
:1025F000479A9FEF2DEE82E0915020408040E1F716
:1026000000C0000088E290E08093004081E190E00B
:10261000809300409FEF26E781E09150204080406A
:10262000E1F700C0000021E030E08BEC90E0809307
:1026300000402093004180EC90E08093004088E0CF
:1026400096E2909300418093004120E130E081ECDC
:1026500090E0809300402093004185EC90E08093CF
:1026600000408EE395E3909300418093004125EB79
:1026700030E087EC90E0809300402093004121E01F
:1026800030E086EF90E0809300402093004180E0AE
:1026900090E0909300418093004125E530E08AE38B
:1026A00090E0809300402093004181E090E00E9400
:1026B000F7100E94A5121092440510924305109243
:1026C00046051092450510924A05109249058FEF74
:1026D0009FEF909348058093470589E290E08093AF
:1026E00000409FE728E381E0915020408040E1F7DF
:1026F00000C0000020E030E085E390E080930040DF
:1027000020930041EAE6F0E08081806280832C9A89
:102710000895CF92DF92EF92FF920F931F93CF9382
:10272000DF93F0914305E0914405209145053091F8
:1027300046058A30E1F41092440510924305285F63
:102740003F4F309346052093450580913F0590917A
:1027500040052817390708F49FC0DF91CF911F91DA
:102760000F91FF90EF90DF90CF900C94A51290EE18
:10277000980F9F3508F090C0B901695F7F4F992786
:1027800087FD90958097A5E0A89FA001A99F500D77
:1027900011244C545F4F8BE290E0809300403093C3
:1027A00000412093004170930041609300418F2FBE
:1027B0009E2F8C010C5F1F4FEAE2EE2EF12CFCE203
:1027C000CF2ED12C481B590B0817190750F1E09256
:1027D000004090930041809300419093004180938A
:1027E0000041C0920040FA01E80FF91FE491D901BD
:1027F000F1E06A177B0798F0CF2FCE2329F0C09124
:102800004705D091480504C0C0914905D0914A05BB
:10281000D0930041C09300411196FF0FEACF01967B
:10282000D3CF4AE250E04093004090930041809320
:10283000004190930041809300418CE290E08093AE
:1028400000406217730758F08091490590914A053E
:1028500090930041809300412F5F3F4FF2CF8091D2
:102860004305909144050696909344058093430553
:1028700020913D0530913E058217930768F0109234
:1028800044051092430580914505909146050896B0
:102890009093460580934505DF91CF911F910F914D
:1028A000FF90EF90DF90CF900895CF92DF92EF925C
:1028B000FF920F931F93CF93DF93F0914305E09125
:1028C000440540914505509146058A30E1F4109247
:1028D000440510924305485F5F4F5093460540936F
:1028E000450580913F05909140054817590708F428
:1028F0009AC0DF91CF911F910F91FF90EF90DF90E1
:10290000CF900C94A51290EE980F9F3508F08BC0D5
:10291000BA01665F7F4F28E08202C001112481570F
:102920009E4F2BE230E020930040509300414093B3
:10293000004170930041609300412F2F3E2F890189
:10294000095F1F4FAAE2EA2EF12CBCE2CB2ED12C5C
:10295000821B930B0217130758F1E092004030934B
:102960000041209300413093004120930041C092E8
:102970000040FC01E20FF31FE491DA01F1E06A1775
:102980007B0798F0CF2FCE2329F0C0914705D09137
:10299000480504C0C0914905D0914A05D093004133
:1029A000C09300411196FF0FEACF2F5F3F4FD2CF68
:1029B0008AE290E0809300403093004120930041F0
:1029C00030930041209300418CE290E080930040DE
:1029D0006417750758F08091490590914A059093C6
:1029E0000041809300414F5F5F4FF2CF80914305DC
:1029F0009091440509969093440580934305209156
:102A00003D0530913E058217930768F0109244050A
:102A10001092430580914505909146050896909344
:102A2000460580934505DF91CF911F910F91FF904F
:102A3000EF90DF90CF9008951F93CF93DF93EC0139
:102A400010E0FE01E10FF11D8081882321F00E943A
:102A500055141F5FF6CFDF91CF911F91089590938A
:102A6000440580934305709346056093450508959A
:102A7000909348058093470570934A0560934905F4
:102A800008951F93CF93DF93EC01709344056093F7
:102A90004305509346054093450510E0FE01E10FC4
:102AA000F11D8081882321F00E9455141F5FF6CF0D
:102AB000DF91CF911F9108951F93CF93DF93EC0186
:102AC0007093440560934305509346054093450534
:102AD00010E0FE01E10FF11D8081882321F00E94AA
:102AE00089131F5FF6CFDF91CF911F910895EF9269
:102AF000FF920F931F93CF93DF93C0E0D0E000E8E5
:102B000010E0E82EF12C98010C2E02C03595279587
:102B10000A94E2F72E213F21232B11F081E301C01B
:102B20008EE20E9455142196C830D10561F7DF91DD
:102B3000CF911F910F91FF90EF90089560E174E89D
:102B400080E090E00E943815409106015091070105
:102B5000485D5F4F60910801709109016E5C7F4F85
:102B60008FE891E00E9441154091060150910701C4
:102B7000445C5F4F60910801709109016E5C7F4F6A
:102B800084E991E00E9441154091060150910701AE
:102B9000405B5F4F60910801709109016E5C7F4F4F
:102BA0008BE991E00E944115809100019091010113
:102BB000409106015091070160910801709109014F
:102BC00081309105F1F08230910509F441C0892BE3
:102BD00009F066C048585F4F6E5C7F4F80EA91E015
:102BE0000E944115409106015091070144575F4FE3
:102BF00060910801709109016E5C7F4F82EB91E05A
:102C000016C048585F4F6E5C7F4F86ED91E00E9482
:102C10004115409106015091070144575F4F609163
:102C20000801709109016E5C7F4F88EE91E00E946F
:102C30004115409106015091070140565F4F609148
:102C40000801709109016E5C7F4F84EC91E026C011
:102C500048585F4F6E5C7F4F86ED91E00E944115B2
:102C6000409106015091070144575F4F6091080160
:102C7000709109016E5C7F4F82EB91E00E944115DB
:102C8000409106015091070140565F4F6091080145
:102C9000709109016E5C7F4F8AEF91E00E944115AF
:102CA000409106015091070142545F4F6091080125
:102CB000709109018CE092E00E94411560E174E896
:102CC0008FE190E00E943815E0914F05F09150059A
:102CD000E730F10508F0C0C0E45BFF4F0C94A11F82
:102CE0004091060150910701485D5F4F60910801D6
:102CF000709109016E5C7F4F8FE891E0ABC040910D
:102D0000060150910701445C5F4F6091080170918A
:102D100009016E5C7F4F84E991E09CC040910601FF
:102D200050910701405B5F4F60910801709109016C
:102D30006E5C7F4F8BE991E08DC080910001909196
:102D4000010181309105A9F08230910591F0892B24
:102D500009F082C0409106015091070148585F4F29
:102D600060910801709109016E5C7F4F80EA91E0EB
:102D700071C0409106015091070148585F4F609122
:102D80000801709109016E5C7F4F86ED91E062C091
:102D900080910001909101018130910539F08230DC
:102DA000910599F0892B09F057C00FC04091060199
:102DB0005091070144575F4F6091080170910901DC
:102DC0006E5C7F4F88EE91E045C0409106015091C6
:102DD000070144575F4F60910801709109016E5CD3
:102DE0007F4F82EB91E036C080910001909101010C
:102DF0008130910529F08230910589F0892B61F5A8
:102E0000409106015091070140565F4F60910801C3
:102E1000709109016E5C7F4F84EC91E01BC0409182
:102E200006015091070140565F4F60910801709173
:102E300009016E5C7F4F8AEF91E00CC04091060162
:102E40005091070142545F4F609108017091090150
:102E50008CE092E00C944115089560E174E880E004
:102E600090E00E9438150E94A512409106015091F1
:102E700007014A50510960910801709109018AE1E6
:102E800092E00E94411540910601509107014C5E6D
:102E90005F4F609108017091090182E392E00E9406
:102EA00041154091060150910701485D5F4F6091C7
:102EB0000801709109016E5C7F4F8FE891E00E94DC
:102EC00041154091060150910701445C5F4F6091AC
:102ED0000801709109016E5C7F4F84E991E00E94C6
:102EE00041154091060150910701405B5F4F609191
:102EF0000801709109016E5C7F4F8BE991E00E949F
:102F0000411540910601509107014C595F4F609166
:102F100008017091090186E492E00E9441158091B8
:102F200000019091010140910601509107016091CB
:102F300008017091090181309105F1F0823091050D
:102F400009F441C0892B09F066C048585F4F6E5C98
:102F50007F4F80EA91E00E94411540910601509117
:102F6000070144575F4F60910801709109016E5C41
:102F70007F4F82EB91E016C048585F4F6E5C7F4FE9
:102F800086ED91E00E9441154091060150910701A4
:102F900044575F4F60910801709109016E5C7F4F4B
:102FA00088EE91E00E944115409106015091070181
:102FB00040565F4F60910801709109016E5C7F4F30
:102FC00084EC91E026C048585F4F6E5C7F4F86EDE1
:102FD00091E00E944115409106015091070144572C
:102FE0005F4F60910801709109016E5C7F4F82EB29
:102FF00091E00E9441154091060150910701405611
:103000005F4F60910801709109016E5C7F4F8AEFFC
:1030100091E00E94411540910601509107014254F0
:103020005F4F60910801709109018CE092E00E946D
:1030300041151092500510924F050C949E150F9358
:103040001F93CF93DF93EC010091120510911305AC
:103050000E94161F080F111D87FD1A951093130566
:10306000009312050E94DD0A892B71F02091120550
:1030700030911305121613061CF40E941C0904C09B
:10308000232B11F00E94C10880914B0590914C05B3
:10309000892B31F120911205309113051216130678
:1030A00054F480914F059091500501966091040170
:1030B000709105010DC0232B99F06091040170916E
:1030C000050180914F0590915005860F971F01973C
:1030D0000E948D1F9093500580934F050E949E156E
:1030E0001092130510921205CE01DF91CF911F911E
:1030F0000F9108958F929F92AF92BF92CF92DF92DD
:10310000EF92FF920F931F93CF93DF93EC016091A7
:103110001D0570911E05E0911F05F09120054CE7FB
:1031200054E080E090E010E3861797072CF08FE0E2
:10313000F82EEE24EA942FC020E030E02E173F074F
:103140003CF4DA01A20FB31F1C932F5F3F4FF6CF61
:103150000196415F5F4FE8CF0E94192360911D05E2
:1031600070911E050E948D1F8C010E941923609191
:103170001F05709120050E948D1FF09EF001F19EA9
:10318000F00D1124E80FF91FE458FB4F80818F3FA9
:1031900019F32197E0821C161D06F4F280901D059C
:1031A00090901E0500911F0510912005B8016150F7
:1031B0007109ACE8B4E040E050E0540181E0A81AA5
:1031C000B108481559050CF086C0FD0120E030E03B
:1031D000201731070CF060C07F01C0E1EC1AF10844
:1031E000E70188818F3F09F453C01416150684F453
:1031F000121613060CF054C0CC24C394D12CCF016A
:103200008097EC0188818F3F09F0C12CC6014AC02C
:1032100080E090E04A155B05FCF41216130654F4A6
:103220006F01C2E0CC1AD108E601D880DFEFDD12D1
:1032300001C00196261737072CF4D080CFEFDC129F
:1032400001C001966F01C1E0CC1AD108E601D88017
:10325000DFEFDD1201C001961216130654F46F0160
:10326000D1E1CD1AD108E601D880DFEFDD1201C02F
:1032700001962617370754F46F01CFE0CC1AD10816
:10328000E601D880DFEFDD1201C00196E7018883F7
:103290002F5F3F4F31969CCF4F5F5F4F1F9691CF6F
:1032A00080E090E06F01DFE1CD1AD108E601D8801F
:1032B000DFEFDD1201C00196261737070CF0AACF09
:1032C0006F01DEE1CD1AD108E601D880DFEFDD1213
:1032D000A1CF01969FCFDF91CF911F910F91FF90CA
:1032E000EF90DF90CF90BF90AF909F908F90089518
:1032F0008F929F92AF92BF92CF92DF92EF92FF9206
:103300000F931F93CF93DF939CE7C92E94E0D92EA0
:1033100000E010E080911D0590911E050817190727
:10332000F4F5E12CF12CC0E0D0E0E0911F05F09124
:103330002005CE17DF076CF5A0904D05B0904E0527
:1033400046018C0E9D1E20915505309156052A1977
:103350003B09029FC001039F900D129F900D112405
:1033600060911D0570911E050E948D1F9B012A0D05
:103370003B1DC701BF010E948D1FCB01F40140819D
:10338000B9010E94EF052196F0ECEF1AFEEFFF0A5B
:10339000CCCF0F5F1F4F8FE0C80ED11CBBCF60E0BA
:1033A00070E080E090E0DF91CF911F910F91FF904E
:1033B000EF90DF90CF90BF90AF909F908F900C9444
:1033C00079060F931F93CF93DF93CDB7DEB7649742
:1033D0000FB6F894DEBF0FBECDBF80EF90E09093A4
:1033E0005605809355058EE190E090934E058093AD
:1033F0004D050E94A512E0911F05F0912005209136
:1034000051053091520580E491E0BF010E948D1F6B
:10341000AB01BF0180911D0590911E050E94010A1C
:1034200020914D0530914E050DE41BE640E050E043
:1034300060E471E080E090E00E94E90220914D0597
:1034400030914E052450310900E114E844E050E089
:103450006CE371E084E090E00E94E90260E174E8CE
:1034600080E090E00E9438154DE050E06BE470E0A1
:1034700085E592E00E944115809152058F938091DD
:1034800051058F9388E791E09F938F938E010F5F93
:103490001F4F1F930F930E942F234DE050E069EBC5
:1034A00070E0C8010E94411580915105909152052C
:1034B0000E947A180E9478190F900F900F900F9029
:1034C0000F900F9064960FB6F894DEBF0FBECDBF7D
:1034D000DF91CF911F910F9108950F931F93CF9379
:1034E000DF9310924C0510924B05E0914F05F0913F
:1034F0005005E730F10508F01DC2ED5AFF4F0C945E
:10350000A11F8091020190910301880F991F13C0A0
:103510008091020190910301880F991F880F991FD4
:103520000AC0209102013091030146E0429FC00190
:10353000439F900D11249093520580935105DF9184
:10354000CF911F910F910C94E119C1E0D0E0D0937D
:103550000301C0930201109201011092000160E189
:1035600074E88FE190E00E94381540910601509177
:10357000070148585F4F60910801709109016E5C26
:103580007F4F80EA91E00E94411560E174E880E09D
:1035900090E00E9438154091060150910701445770
:1035A0005F4F60910801709109016E5C7F4F82EB63
:1035B00091E00E944115409106015091070140564B
:1035C0005F4F60910801709109016E5C7F4F84EC40
:1035D00091E00E94411584E090E090931E05809355
:1035E0001D0586E090E050C082E090E090930301DA
:1035F00080930201C1E0D0E0D0930101C0930001AB
:1036000060E174E880E090E00E9438154091060186
:103610005091070148585F4F60910801709109016E
:103620006E5C7F4F86ED91E00E944115409106014E
:103630005091070140565F4F609108017091090158
:103640006E5C7F4F84EC91E00E94411560E174E86C
:103650008FE190E00E9438154091060150910701DA
:1036600044575F4F60910801709109016E5C7F4F74
:1036700088EE91E00E94411587E090E090931E054E
:1036800080931D058BE090E09093200580931F05AB
:10369000D0934C05C0934B054DC185E090E09093CD
:1036A00003018093020182E090E0909301018093F6
:1036B000000160E174E880E090E00E9438154091DC
:1036C00006015091070148585F4F609108017091C1
:1036D00009016E5C7F4F86ED91E00E94411540919B
:1036E00006015091070144575F4F609108017091A6
:1036F00009016E5C7F4F82EB91E00E94411560E111
:1037000074E88FE190E00E943815409106015091D5
:10371000070140565F4F60910801709109016E5C8E
:103720007F4F8AEF91E00E9441158AE090E09093EC
:103730001E0580931D058FE090E0909320058093F7
:103740001F0581E090E090934C0580934B05F2C0FB
:1037500060E174E880E090E00E9438150E94A512B4
:103760000091060110910701C0910801D091090153
:1037700085E090E090930901809308018AE090E051
:1037800090930701809306014AE050E065E070E005
:1037900083E692E00E945C1540910601509107017A
:1037A0004C5E5F4F609108017091090180E892E0E2
:1037B0000E945C1540910601509107014D5D5F4FDD
:1037C00060910801709109018AEA92E00E945C15FB
:1037D0004091060150910701495C5F4F60910801DB
:1037E0007091090184ED92E00E945C154091060100
:1037F000509107014A5B5F4F609108017091090188
:103800006C5E7F4F86EE92E00E945C15409106014F
:10381000509107014B5A5F4F609108017091090167
:103820006C5E7F4F81E193E00E945C154091060140
:10383000509107014C595F4F609108017091090147
:103840006C5E7F4F8CE393E00E945C154091060113
:10385000509107014D585F4F609108017091090127
:10386000685D7F4F8BE693E00E945C1540910601F6
:10387000509107014E575F4F609108017091090107
:10388000685D7F4F87E893E00E945C1540910601D8
:10389000509107014F565F4F6091080170910901E7
:1038A00083EA93E00E945C15409106015091070164
:1038B00040565F4F609108017091090188ED93E0D7
:1038C0000E945C15409106015091070141555F4FE0
:1038D000609108017091090183E094E00E945C15F9
:1038E000409106015091070148535F4F60910801D4
:1038F000709109018FE294E00E945C1540910601ED
:103900005091070149525F4F609108017091090180
:1039100081E594E00E945C1581E090E0909354056D
:10392000809353051093070100930601D09309017A
:10393000C0930801DF91CF911F910F910895CF930C
:10394000DF93EC0180914B0590914C05892BB9F1E7
:1039500084E00E94211F882399F0609104017091F6
:10396000050180914F0590915005860F971F019793
:103970000E948D1F9093500580934F050E949E15C5
:1039800080E10E94211F882389F080914F0590914A
:103990005005019660910401709105010E948D1FF0
:1039A0009093500580934F050E949E1580E80E94D9
:1039B0003B1F882309F499C00E946D1A96C080911C
:1039C000530590915405892BF1F080E20E94421F2B
:1039D000882309F48AC00E942D1781E090E090931B
:1039E0004C0580934B05109254051092530510928C
:1039F000500510924F052FEF84E39CE0215080404A
:103A00009040E1F76EC00E94DD0A892B09F43FC0A7
:103A100084E00E943B1F81110E94520784E00E94B3
:103A2000421F81110E94EE0B88E00E943B1F811112
:103A30000E941C0980E10E943B1F81110E94030823
:103A400080E10E94421F81110E949F0C80E20E942F
:103A50003B1F81110E94C10880E80E943B1F811119
:103A60000E94530D80E20E94421F882309F43DC04A
:103A700081E090E090934C0580934B0510925005A7
:103A800010924F050E94E20A0E942D172CC080E878
:103A90000E943B1F882369F0F8940E94E1192FEFE0
:103AA00080E792E0215080409040E1F700C00000A4
:103AB000789480E20E94421F8823B9F00E942D175B
:103AC00081E090E090934C0580934B051092500557
:103AD00010924F052FEF80E792E0215080409040F8
:103AE000E1F700C000000E94461FCE01DF91CF9198
:103AF0000895E1E6F0E080E880831082279A2F980D
:103B00000E94E3120E94421E0C94F21E1F920F921A
:103B10000FB60F9211240BB60F92CF92DF92EF9255
:103B2000FF920F931F932F933F934F935F936F9346
:103B30007F938F939F93AF93BF93CF93DF93EF9335
:103B4000FF93F12C8DE0E82EDD24D394CC24CA948D
:103B5000CF2DD0E080911501992787FD90958C1786
:103B60009D070CF474C0EC9EF001ED9EF00D112445
:103B7000E95AFA4F4581568167817085818192812A
:103B8000A381B481481759076A077B0708F44BC023
:103B9000A0911605B0E0A65FBE4F8C91F81608F014
:103BA00042C0808181113FC0F894EC9EF001ED9EEF
:103BB000F00D1124E95AFA4F1582168217821086E9
:103BC000D082E0911605EF5FE0931605F0E0E65F26
:103BD000FE4FF0827894EC9E8001ED9E100D112432
:103BE000095A1A4FD8011996ED91FC911A971B9614
:103BF0008D919C911C970995F80194878387F8947F
:103C0000EC9EF001ED9EF00D1124E95AFA4F10825E
:103C100080911605E82FF0E0E65FFE4FC0828150EC
:103C2000809316057894EC9EF001ED9EF00D112422
:103C3000E95AFA4F85819681A781B0850196A11D29
:103C4000B11D85839683A783B087F39481CFFF91BD
:103C5000EF91DF91CF91BF91AF919F918F917F9124
:103C60006F915F914F913F912F911F910F91FF9015
:103C7000EF90DF90CF900F900BBE0F900FBE0F9084
:103C80001F90189583E884BD85B5836085BD81E06C
:103C900080936E0016BC17BC08952F980895EF927C
:103CA000FF920F931F93CF93DF937C018901C09103
:103CB0001501DD27C7FDD0952196CA30D10554F5F1
:103CC000CB01BA010E94B42025E732E04AEF5EE35F
:103CD0000E94422120E030E040E05FE30E94BC1FF0
:103CE0000E9488202DE02C9FF0012D9FF00D1124C3
:103CF000E95AFA4F61837283838394836583768361
:103D0000878390871082F286E18614870387C093A9
:103D1000150102C0CFEFDFEFCE01DF91CF911F91F0
:103D20000F91FF90EF900895F8943CB135FD02C0DB
:103D300020E001C023E034FF02C031E023273091AE
:103D40001A05321B30FF09C020931A052091DC05AB
:103D500021503270230F2093DC0578940895F89455
:103D60005091DB0546B12CB133B12F67406C242351
:103D70003F6B232320952527309119053223309559
:103D800030931905409118054223432740931805A5
:103D9000232324233091DB0532273093DB05309138
:103DA000D9054091DB054223432B4093D90520914F
:103DB000DB052C7F19F42CE32093170520911705C0
:103DC000215019F0209317050BC02AE02093170506
:103DD0003091DA052091DB052C7F232B2093DA0527
:103DE000789408958DB18F7C8DB98EB180638EB932
:103DF0006F98779A87B1837C87B988B18C6388B9CB
:103E000026982E9A20E030E042E050E060E070E03A
:103E100084E99EE10E944F1E20E030E04AE050E03D
:103E200060E070E08FEA9EE10C944F1EF894809160
:103E3000DC059091DC0591709093DC057894859574
:103E40000895F8949091D90589239091D9059827E0
:103E50009093D90578940895F8949091DA05892380
:103E60009091DA0598279093DA05789408959091C7
:103E7000DB0589230895F8949091DB0590958923BB
:103E80000C94211F0E942C1F0C94211F1092D90505
:103E90001092DA0508950E94791D81E090E09093D8
:103EA0004C0580934B051092540510925305809158
:103EB0000401909105019093500580934F0587E090
:103EC00090E090931E0580931D058BE090E0909309
:103ED000200580931F0521E030E044E650E060E0DB
:103EE00070E08FE198E10E944F1E21E030E044E64F
:103EF00050E060E070E08FE99CE10E944F1E8091ED
:103F0000B10081608093B1008091B20090E00E9486
:103F10001D230E942D177894FFCF97FB072E16F4D0
:103F2000009407D077FD09D00E94A71F07FC05D099
:103F30003EF4909581959F4F0895709561957F4FC0
:103F40000895EE0FFF1F0590F491E02D0994AA1B30
:103F5000BB1B51E107C0AA1FBB1FA617B70710F074
:103F6000A61BB70B881F991F5A95A9F780959095A6
:103F7000BC01CD0108955058BB27AA270ED048C1D7
:103F800039D130F03ED120F031F49F3F11F41EF4CE
:103F90002EC10EF4E095E7FB24C1E92F4AD180F34E
:103FA000BA17620773078407950718F071F49EF536
:103FB00062C10EF4E0950B2EBA2FA02D0B01B901B2
:103FC00090010C01CA01A0011124FF27591B99F08F
:103FD000593F50F4503E68F11A16F040A22F232F9B
:103FE000342F4427585FF3CF469537952795A795EB
:103FF000F0405395C9F77EF41F16BA0B620B730B92
:10400000840BBAF09150A1F0FF0FBB1F661F771F02
:10401000881FC2F70EC0BA0F621F731F841F48F4B7
:10402000879577956795B795F7959E3F08F0B3CF3D
:104030009395880F08F09927EE0F97958795089527
:104040000CD0E6C0DED040F0D5D030F021F45F3F98
:1040500019F0C7C0511110C1CAC0EBD098F3992311
:10406000C9F35523B1F3951B550BBB27AA2762173C
:104070007307840738F09F5F5F4F220F331F441F81
:10408000AA1FA9F333D00E2E3AF0E0E830D09150B9
:104090005040E695001CCAF729D0FE2F27D0660FA6
:1040A000771F881FBB1F261737074807AB07B0E8E5
:1040B00009F0BB0B802DBF01FF2793585F4F2AF0FB
:1040C0009E3F510568F08DC0D7C05F3FECF3983E2E
:1040D000DCF3869577956795B795F7959F5FC9F758
:1040E000880F911D9695879597F90895E1E0660FE1
:1040F000771F881FBB1F621773078407BA0720F05A
:10410000621B730B840BBA0BEE1F88F7E0950895C2
:1041100098D088F09F5790F0B92F9927B751A0F009
:10412000D1F0660F771F881F991F1AF0BA95C9F74B
:1041300012C0B13081F09FD0B1E008959CC0672FCC
:10414000782F8827B85F39F0B93FCCF386957795FB
:104150006795B395D9F73EF49095809570956195E4
:104160007F4F8F4F9F4F0895E89409C097FB3EF40F
:1041700090958095709561957F4F8F4F9F4F9923B4
:10418000A9F0F92F96E9BB279395F6958795779532
:104190006795B795F111F8CFFAF4BB0F11F460FFF2
:1041A0001BC06F5F7F4F8F4F9F4F16C0882311F04A
:1041B00096E911C0772321F09EE8872F762F05C05E
:1041C000662371F096E8862F70E060E02AF09A95F9
:1041D000660F771F881FDAF7880F9695879597F9EE
:1041E000089597F99F6780E870E060E008959FEF79
:1041F00080EC089500240A9416161706180609067E
:10420000089500240A94121613061406050608954C
:10421000092E0394000C11F4882352F0BB0F40F4D4
:10422000BF2B11F460FF04C06F5F7F4F8F4F9F4F14
:10423000089557FD9058440F551F59F05F3F71F096
:104240004795880F97FB991F61F09F3F79F08795FD
:104250000895121613061406551FF2CF4695F1DF86
:1042600008C0161617061806991FF1CF8695710516
:10427000610508940895E894BB2766277727CB014A
:1042800097F908950BD0C4CFB5DF28F0BADF18F046
:10429000952309F0A6CFABCF1124EECFCADFA0F350
:1042A000959FD1F3950F50E0551F629FF001729FCB
:1042B000BB27F00DB11D639FAA27F00DB11DAA1FEA
:1042C000649F6627B00DA11D661F829F2227B00D37
:1042D000A11D621F739FB00DA11D621F839FA00DC2
:1042E000611D221F749F3327A00D611D231F849F12
:1042F000600D211D822F762F6A2F11249F57504069
:104300008AF0E1F088234AF0EE0FFF1FBB1F661F03
:10431000771F881F91505040A9F79E3F510570F0BC
:1043200060CFAACF5F3FECF3983EDCF3869577959C
:104330006795B795F795E7959F5FC1F7FE2B880FB7
:10434000911D9695879597F90895CF93DF938230C5
:10435000910510F482E090E0E091DF05F091E00536
:1043600020E030E0A0E0B0E0309739F140815181A9
:1043700048175907B8F04817590771F4828193819B
:10438000109729F013969C938E9312972CC09093BC
:10439000E0058093DF0527C02115310531F0421774
:1043A000530718F0A901DB0101C0EF019A01BD011B
:1043B000DF010280F381E02DD7CF21153105F9F01F
:1043C000281B390B2430310580F48A819B816115CB
:1043D000710521F0FB019383828304C09093E00573
:1043E0008093DF05FE01329644C0FE01E20FF31F09
:1043F0008193919322503109398328833AC02091C7
:10440000DD053091DE05232B41F420911801309118
:1044100019013093DE052093DD05209116013091BE
:1044200017012115310541F42DB73EB740911A010E
:1044300050911B01241B350BE091DD05F091DE0549
:10444000E217F307A0F42E1B3F0B2817390778F06B
:10445000AC014E5F5F4F2417350748F04E0F5F1FCA
:104460005093DE054093DD058193919302C0E0E017
:10447000F0E0CF01DF91CF910895CF93DF930097C4
:1044800009F487C0FC01329713821282C091DF05C4
:10449000D091E005209781F420813181280F391FC8
:1044A0008091DD059091DE058217930779F5F093F1
:1044B000DE05E093DD056DC0DE0120E030E0AE17E3
:1044C000BF0750F412964D915C9113979D014115D1
:1044D000510509F1DA01F3CFB383A2834081518101
:1044E000840F951F8A179B0771F48D919C911197EA
:1044F000840F951F02969183808312968D919C91D3
:104500001397938382832115310529F4F093E005F5
:10451000E093DF053EC0D9011396FC93EE9312970A
:104520004D915D91A40FB51FEA17FB0779F48081C7
:104530009181840F951F0296D90111969C938E93B9
:104540008281938113969C938E931297E0E0F0E022
:104550008A819B81009719F0FE01EC01F9CFCE0111
:10456000029628813981820F931F2091DD053091B9
:10457000DE052817390769F4309729F41092E00511
:104580001092DF0502C013821282D093DE05C09321
:10459000DD05DF91CF9108958F929F92AF92BF92E8
:1045A000CF92DF92EF92FF92CF93DF93EC0168817D
:1045B00079818A819B81611571058105910521F4BD
:1045C00064E279ED8BE597E02DE133EF41E050E0D7
:1045D0000E94122649015A019B01AC01A7EAB1E4ED
:1045E0000E94FF256B017C01ACEEB4EFA5019401A4
:1045F0000E940D26C60ED71EE81EF91EF7FE06C045
:1046000081E0C81AD108E10880E8F80AC882D98296
:10461000EA82FB82C6019F77DF91CF91FF90EF90F6
:10462000DF90CF90BF90AF909F908F9008950C94A3
:10463000CC228CE191E00C94CC22A0E0B0E08093FD
:104640001C0190931D01A0931E01B0931F010895BA
:10465000FB01DC0101900D920020E1F708950F931A
:104660001F93CF93DF93CDB7DEB72E970FB6F89495
:10467000DEBF0FBECDBF0D891E8986E08C831A83F5
:1046800009838FEF9FE79E838D83AE01475E5F4F67
:104690006F89788DCE0101960E945E23EF81F885A7
:1046A000E00FF11F10822E960FB6F894DEBF0FBEFA
:1046B000CDBFDF91CF911F910F9108952F923F921F
:1046C0004F925F926F927F928F929F92AF92BF9222
:1046D000CF92DF92EF92FF920F931F93CF93DF93CE
:1046E000CDB7DEB72C970FB6F894DEBF0FBECDBFA7
:1046F0007C016B018A01FC0117821682838181FF94
:10470000BDC1CE0101964C01F7019381F60193FDE5
:10471000859193FF81916F01882309F4ABC18532A4
:1047200039F493FD859193FF81916F01853229F4CE
:10473000B70190E00E946F25E7CF512C312C20E08B
:104740002032A0F48B3269F030F4803259F0833299
:1047500069F420612CC08D3239F0803339F4216046
:1047600026C02260246023C0286021C027FD27C006
:1047700030ED380F3A3078F426FF06C0FAE05F9E3D
:10478000300D1124532E13C08AE0389E300D1124B1
:10479000332E20620CC08E3221F426FD6BC12064C2
:1047A00006C08C3611F4206802C0883641F4F60148
:1047B00093FD859193FF81916F018111C1CF982F56
:1047C0009F7D9554933028F40C5F1F4FFFE3F983CE
:1047D0000DC0833631F0833771F0833509F05BC04B
:1047E00022C0F801808189830E5F1F4F44244394C7
:1047F000512C540115C03801F2E06F0E711CF80104
:10480000A080B18026FF03C0652D70E002C06FEF6D
:104810007FEFC5012C870E9464252C0183012C8524
:104820002F77222E17C03801F2E06F0E711CF801AD
:10483000A080B18026FF03C0652D70E002C06FEF3D
:104840007FEFC5012C870E9459252C012C852068FB
:10485000222E830123FC1BC0832D90E048165906AD
:10486000B0F4B70180E290E00E946F253A94F4CF53
:10487000F50127FC859127FE81915F01B70190E04A
:104880000E946F2531103A94F1E04F1A51084114FB
:10489000510471F7E5C0843611F0893639F5F80115
:1048A00027FF07C060817181828193810C5F1F4F58
:1048B00008C060817181882777FD8095982F0E5FF1
:1048C0001F4F2F76B22E97FF09C090958095709557
:1048D00061957F4F8F4F9F4F2068B22E2AE030E0C6
:1048E000A4010E94A125A82EA81844C0853729F448
:1048F0002F7EB22E2AE030E025C0F22FF97FBF2EA6
:104900008F36C1F018F4883579F0B4C0803719F0CB
:10491000883721F0AFC02F2F2061B22EB4FE0DC01A
:104920008B2D8460B82E09C024FF0AC09F2F96608B
:10493000B92E06C028E030E005C020E130E002C01A
:1049400020E132E0F801B7FE07C060817181828109
:1049500093810C5F1F4F06C06081718180E090E001
:104960000E5F1F4FA4010E94A125A82EA818FB2DA1
:10497000FF77BF2EB6FE0BC02B2D2E7FA51450F453
:10498000B4FE0AC0B2FC08C02B2D2E7E05C07A2CC6
:104990002B2D03C07A2C01C0752C24FF0DC0FE0105
:1049A000EA0DF11D8081803311F4297E09C022FFB8
:1049B00006C07394739404C0822F867809F07394B0
:1049C00023FD13C020FF06C05A2C731418F4530C97
:1049D0005718732C731468F4B70180E290E02C87A9
:1049E0000E946F2573942C85F5CF731410F437183B
:1049F00001C0312C24FF12C0B70180E390E02C8766
:104A00000E946F252C8522FF17C021FF03C088E577
:104A100090E002C088E790E0B7010CC0822F867852
:104A200059F021FD02C080E201C08BE227FD8DE23A
:104A3000B70190E00E946F25A51438F4B70180E318
:104A400090E00E946F255A94F7CFAA94F401EA0DE2
:104A5000F11D8081B70190E00E946F25A110F5CF74
:104A6000332009F451CEB70180E290E00E946F2517
:104A70003A94F6CFF7018681978102C08FEF9FEFBE
:104A80002C960FB6F894DEBF0FBECDBFDF91CF914D
:104A90001F910F91FF90EF90DF90CF90BF90AF905C
:104AA0009F908F907F906F905F904F903F902F904E
:104AB0000895FC010590615070400110D8F7809571
:104AC00090958E0F9F1F0895FC01615070400190DA
:104AD0000110D8F7809590958E0F9F1F08950F9322
:104AE0001F93CF93DF93182F092FEB018B8181FD4B
:104AF00003C08FEF9FEF20C082FF10C04E815F8107
:104B00002C813D81421753077CF4E881F9819F0194
:104B10002F5F3F4F39832883108306C0E885F985CE
:104B2000812F0995892B29F72E813F812F5F3F4FD8
:104B30003F832E83812F902FDF91CF911F910F9173
:104B40000895FA01AA27283051F1203181F1E89423
:104B50006F936E7F6E5F7F4F8F4F9F4FAF4FB1E070
:104B60003ED0B4E03CD0670F781F891F9A1FA11D6B
:104B7000680F791F8A1F911DA11D6A0F711D811D6C
:104B8000911DA11D20D009F468943F912AE0269F31
:104B900011243019305D3193DEF6CF010895462F90
:104BA0004770405D4193B3E00FD0C9F7F6CF462F71
:104BB0004F70405D4A3318F0495D31FD40524193DA
:104BC00002D0A9F7EACFB4E0A69597958795779597
:104BD0006795BA95C9F700976105710508959B011E
:104BE000AC010A2E06945795479537952795BA95A7
:104BF000C9F7620F731F841F951FA01D08950E949F
:104C00003126A59F900DB49F900DA49F800D911DFE
:104C100011240895B7FF0C94FF250E94FF25821BE5
:104C2000930B0895052E97FB1EF400940E942926ED
:104C300057FD07D00E94402607FC03D04EF40C9489
:104C4000292650954095309521953F4F4F4F5F4F06
:104C5000089590958095709561957F4F8F4F9F4FE8
:104C60000895A29FB001B39FC001A39F700D811D45
:104C70001124911DB29F700D811D1124911D089565
:104C8000A1E21A2EAA1BBB1BFD010DC0AA1FBB1F50
:104C9000EE1FFF1FA217B307E407F50720F0A21BC2
:104CA000B30BE40BF50B661F771F881F991F1A942F
:104CB00069F760957095809590959B01AC01BD0159
:084CC000CF010895F894FFCF25
:104CC8000100020007001E004600FF00000000006F
:104CD8000000000000FF0000E105200001000000C6
:104CE800FF0000007800256400434F4E47524154AE
:104CF800554C4154494F4E532120594F5520574F39
:104D08004E21203A440A0050726573732063656E21
:104D180074657220746F20726573746172740048D0
:104D28006F6C64203C20746F2072657475726E20FD
:104D3800746F206D656E75003D3D202564203D3DF6
:104D48000047414D45204F564552203A280A004514
:104D5800617379004D656469756D0048617264001E
:104D680034202078203620202020202020205B7826
:104D78005D0037202078203131202020202020207D
:104D88005B205D0031302078203135202020202024
:104D980020205B205D003420207820362020202031
:104DA800202020205B205D00372020782031312012
:104DB8002020202020205B785D00313020782031B1
:104DC80035202020202020205B785D00496E7374F8
:104DD80072756374696F6E73200057454C434F4D6D
:104DE8004520544F204D494E45535745455045524F
:104DF800210053656C656374206469666669637530
:104E08006C74793A2000536574206D617020736961
:104E18007A653A2000466C616720746F6B656E7323
:104E28003A2000494E535452554354494F4E53204B
:104E3800464F52204D494E4553574545504552001F
:104E4800546F206E61766967617465207468726F4B
:104E5800756768206D656E75206974656D7320755A
:104E680073652074686520757000616E6420646FD6
:104E7800776E20627574746F6E73206F7220746819
:104E88006520726F7461727920636F6E74726F6CD3
:104E98006C657200496E7369646520746865206783
:104EA800616D653A2000557365206172726F7720D5
:104EB800627574746F6E73206F72207468652072E7
:104EC8006F7461727920636F6E74726F6C6C657247
:104ED80000746F206E617669676174652028736558
:104EE8006C65637429207468726F756768206163E4
:104EF80074697665206669656C6473004C6F6E67CB
:104F0800207072657373207570206F7220646F77DC
:104F18006E20627574746F6E7320746F206379638A
:104F28006C65207468726F7567680020666C6167CD
:104F38007320202020202020202D206D61726B6599
:104F48006420627920210027756E63657274616937
:104F58006E732720202D206D61726B656420627945
:104F6800203F0054686520696E697469616C206629
:104F78006C616720746F6B656E206E756D6265720B
:104F880020697320746865206E756D626572206F84
:104F980066206D696E657300596F752077696E209C
:104FA80062792072657665616C696E6720616C6CE8
:104FB8002073616665206669656C6473206F722072
:104FC800627900666C616767696E6720616C6C2046
:104FD800746865206D696E65732028616E64206F42
:104FE8006E6C7920746865206D696E657329004C54
:104FF8006F6E67207072657373206C656674203CF1
:10500800206172726F7720746F2072657475726E8A
:1050180000746F20746865206D61696E20206D656D
:105028006E752066726F6D20616E7920736372658C
:04503800656E0000A1
:00000001FF
